:10000000A6C00000C1C00000BFC00000BDC000000D
:10001000BBC00000B9C00000B7C00000B5C0000000
:10002000B3C00000B1C000009DC30000ADC000001F
:10003000ABC00000A9C00000A7C00000A5C0000020
:10004000A3C00000A1C000009FC000009DC0000030
:100050009BC0000099C0000097C0000095C0000040
:1000600093C0000091C000008FC000008DC0000050
:100070008BC0000089C0000087C0000085C0000060
:1000800083C0000081C000007FC000007DC0000070
:100090007BC0000079C0000026034C0055004600DC
:1000A000410020004A006F0079007300740069006D
:1000B00063006B002000440065006D006F000000CD
:1000C0001A034C0055004600410020004C00690016
:1000D00062007200610072007900000004030904EC
:1000E00009022200010100C03209040000010300DE
:1000F0000000092111010001223A000705810308CF
:1001000000051201100100000008EB03432001006C
:100110000102000105010904A1010901A100093042
:1001200009310932169CFF26640036FFFF460100A4
:10013000950375088102C0050919012902150025DA
:1001400001750195028102750695018101C0112496
:100150001FBECFEFD0E2DEBFCDBF11E0A0E0B1E027
:10016000E8E4F0E100E00BBF02C007900D92A0317F
:10017000B107D9F721E0A0E1B1E001C01D92A132A1
:10018000B207E1F71AD05EC73BCF84B7877F84BF41
:100190000FB6F894A8958091600088618093600004
:1001A000109260000FBE80E890E00FB6F894809344
:1001B0006100909361000FBEBAC2E7DF14B88FEF01
:1001C00085B9789480E091E05ED6F4D4FBCF0895B1
:1001D000089580E091E03FD6E2EEF0E08081846017
:1001E0008083089580E091E0FEC480910E0190919B
:1001F0000F01009729F0019790930F0180930E0152
:1002000008950F931F93F901D801189903C08381B2
:100210008160838384E090E08D939C9380E01F91C4
:100220000F91089508959C01DA01832F9927833057
:100230009105A9F050F48130910541F1029759F1EF
:1002400080E090E020E030E018C08132910541F17B
:100250008297B1F78AE390E024E131E00EC0C90152
:100260009927213069F08230910569F0ECEDF0E0DA
:10027000892B31F7849190E09F012D933C93089551
:10028000E0ECF0E0F7CFE8E9F0E0F4CF82E190E0D5
:1002900022E031E0F2CF82E290E020EE30E0EDCFDC
:1002A00089E090E022EF30E0E8CFAF92BF92CF92AA
:1002B000DF92FF920F931F93CF93DF936C01EB01BB
:1002C0008A01BFD1F82E811124C00115110539F022
:1002D000F80180819181C81BD90BC80ED91EA12CB1
:1002E000B12C2097B1F08091E80085FD22C080916B
:1002F000E8008E778093E8005DD401151105A1F028
:10030000F801808191818A0D9B1D9183808385E016
:10031000F82E8F2DDF91CF911F910F91FF90DF90DD
:10032000CF90BF90AF9008958CD18823E1F2F82E42
:10033000F0CFF60181916F018093F1002197FFEFDB
:10034000AF1ABF0ACECFFC019B0180911E01909194
:100350001F018617970718F0672B61F0C90140E06D
:10036000009771F441110CC08091E80082FF35C004
:1003700080E008958091E8008E778093E800EECFCA
:10038000209117012223A9F12530A9F12091E8003D
:1003900023FD2DC02091E80022FDE6CF2091E8004A
:1003A00020FFDECF2091F2003091F300009719F08A
:1003B0002830310558F041E02830310509F040E09F
:1003C0002091E8002E772093E800CACF4191409316
:1003D000F10001972F5F3F4FE9CF809117018823EC
:1003E00041F0853041F08091E80083FFBDCF81E08E
:1003F000089582E0089583E00895FC01CB01009701
:1004000069F42091E8002B772093E800009731F4FD
:100410008091E80080FF1DC080E0089520911701C1
:10042000222309F12530D9F02091E80023FD19C0DD
:100430002091E80022FFF2CF2091F2003091F300EA
:10044000232BF9F22091F100219301970097A1F756
:10045000D8CF80911701882331F08530C9F683E029
:10046000089581E0089582E00895FC019B01809148
:100470001E0190911F018617970718F0672B61F0F6
:10048000C90140E0009771F441110CC08091E8006F
:1004900082FF36C080E008958091E8008E778093D7
:1004A000E800EECF209117012223B1F12530B1F100
:1004B0002091E80023FD2EC02091E80022FDE6CF28
:1004C0002091E80020FFDECF2091F2003091F30070
:1004D000009719F02830310558F041E028303105F7
:1004E00009F040E02091E8002E772093E800CACF81
:1004F00044914093F100319601972F5F3F4FE8CF31
:1005000080911701882341F0853041F08091E80007
:1005100083FFBCCF81E0089582E0089583E00895D1
:10052000982F973028F08F708093E90081E008952C
:100530009093E900242F762F50E0981731F07091B6
:10054000EC002091ED005091F00021FD02C09F5F72
:10055000E8CF3091EB003E7F3093EB003091ED001F
:100560003D7F3093ED003091EB0031603093EB0034
:100570007093EC002093ED005093F0002091EE007A
:1005800027FDE5CF80E008950F931F93CF93DF936E
:10059000162FEC0100E0011302C081E00FC098812A
:1005A000911103C00F5F2596F6CF3C81E981FA8156
:1005B0002B81892F8F70873030F080E0DF91CF91D1
:1005C0001F910F9108953230B8F036E068E070E086
:1005D00040E06E177F0790F04295407F432B692FD4
:1005E000661F6627661F90E4299F90011124622BE5
:1005F00097DF8111D7CFE1CF32E0E8CF4F5F660FB1
:10060000771FE7CF8091180187FF13C08091E80022
:1006100082FF06C08091E8008B778093E80004C0D9
:10062000809117018111F2CF0895809117018823DD
:10063000D9F38091E80080FFF8CF8091E8008E77B1
:10064000ECCF2091E4003091E50095E6A90180917E
:10065000EC008170882331F08091E80080FF06C0B3
:1006600080E008952091E80022FD1BC080911701D1
:10067000882391F0853091F08091EB0085FD10C0CA
:100680002091E4003091E5004217530701F39150A7
:100690009111DCCF84E0089582E0089583E008950D
:1006A00081E008950F931F93CF93DF934ED055D0E1
:1006B000C8EDD0E088818F778883888180688883BF
:1006C00088818F7D8883E7EDF0E08081806880837A
:1006D00019BC109217011092160110921401109279
:1006E000150100EE10E0F80180818B7F8083888106
:1006F0008160888342E060E080E012DFE1EEF0E0BC
:1007000080818E7F8083E2EEF0E080818160808353
:10071000808188608083F80180818E7F80838881DA
:1007200080618883DF91CF911F910F910895E8ED4B
:10073000F0E080818F7E8083E7EDF0E08081816052
:10074000808381E080932001ADCFE8EDF0E08081EF
:100750008C7F80831092E20008951092DA0010924C
:10076000E10008951F920F920FB60F9211240BB65D
:100770000F922F933F934F935F936F937F938F933A
:100780009F93AF93BF93EF93FF938091E10082FF1C
:100790000AC08091E20082FF06C08091E1008B7F59
:1007A0008093E10022DD8091DA0080FF18C0809103
:1007B000D80080FF14C08091DA008E7F8093DA0029
:1007C0008091D90080FF8CC084E189BD86E189BD1C
:1007D00009B400FEFDCF81E080931701F8DC809121
:1007E000E10080FF18C08091E20080FF14C080917A
:1007F000E2008E7F8093E2008091E200806180932E
:10080000E2008091D80080628093D80019BC85E016
:1008100080931701CED18091E10084FF28C08091A0
:10082000E20084FF24C084E189BD86E189BD09B46A
:1008300000FEFDCF8091D8008F7D8093D8008091FD
:10084000E1008F7E8093E1008091E2008F7E8093B3
:10085000E2008091E20081608093E20080911601C5
:10086000882309F442C084E080931701A2D18091CB
:10087000E10083FF22C08091E20083FF1EC08091CF
:10088000E100877F8093E10082E08093170110925E
:1008900016018091E1008E7F8093E1008091E2005B
:1008A0008E7F8093E2008091E20080618093E2007D
:1008B00042E060E080E034DE7CD1FF91EF91BF91B7
:1008C000AF919F918F917F916F915F914F913F91E8
:1008D0002F910F900BBE0F900FBE0F901F90189589
:1008E00019BC1092170174DC7ACF8091E30087FF66
:1008F00002C083E0B9CF81E0B7CF1F93CF93DF93DE
:10090000CDB7DEB7AA970FB6F894DEBF0FBECDBF46
:1009100088E191E0FC0101962091F100208321E023
:1009200080329207B9F75EDC8091E80083FF10C047
:100930008091180190911901953009F4D7C000F504
:10094000292F2D7F213009F488C0992309F45DC037
:100950008091E80083FF0AC08091E800877F809340
:10096000E8008091EB0080628093EB00AA960FB6BE
:10097000F894DEBF0FBECDBFDF91CF911F910895D8
:10098000983009F4EBC0993009F4F5C0963001F7BE
:1009900080588230E8F680911A0190911B018C3DBD
:1009A00053E0950709F0C5C083E08A838AE2898312
:1009B0004FB7F894DE01139620E03EE051E2E32FBA
:1009C000F0E050935700849120FF03C082958F7010
:1009D0003F5F8F708A3008F4AAC0895C90E08D93E5
:1009E0009D932F5F243159F74FBF8091E800877F97
:1009F0008093E8006AE270E0CE010196A4DC809169
:100A0000E8008B778093E800A3CF803899F0823894
:100A100009F09ECF80911C018F70873008F098CF2D
:100A20008093E9008091EB0085FB882780F9109284
:100A3000E90006C080911501909114019111826026
:100A40009091E800977F9093E8008093F1001092D6
:100A5000F1008091E8008E771AC081110CC080915E
:100A60001A01813009F074CF81E0933009F080E001
:100A70008093140107C0823009F06ACF80911A0177
:100A8000882349F01092E9008091E800877F8093E5
:100A9000E800B8DD5DCF80911C018F702FEF280F2B
:100AA000263008F055CF8093E9002091EB0020FF1D
:100AB000E9CF933031F48091EB0080628093EB00BA
:100AC000E1CF9091EB0090619093EB0021E030E05A
:100AD000A90102C0440F551F8A95E2F74093EA002E
:100AE0001092EA008091EB008860E8CF811130CF4E
:100AF00010911A011F778091E3008078812B8093F9
:100B0000E3008091E800877F8093E8007BDD80919F
:100B1000E80080FFFCCF8091E30080688093E300D1
:100B200083E0111101C082E08093170111CF805D35
:100B300055CF60911C0170911D01AE014F5F5F4F59
:100B400072DBBC01892B09F403CF8091E800877F19
:100B50008093E80089819A8188DC51CF803809F040
:100B6000F7CE8091E800877F8093E800809116019E
:100B70008093F1006ECF8111EBCE90911A019230EB
:100B800008F0E6CE8091E800877F8093E80090939C
:100B9000160138DD80911601882329F084E08093C6
:100BA000170117DBD5CE8091E30087FDF7CF81E0F9
:100BB000F6CF0895CF9380911701882391F080910B
:100BC000E900C091EC00C795CC27C7958F70C82B62
:100BD0001092E9008091E80083FD8FDECF70C09312
:100BE000E900CF910895AF92BF92CF92DF92EF923A
:100BF000FF920F931F93CF93DF9300D000D000D0CC
:100C00000F92CDB7DEB77C018DB79EB79F838E83E1
:100C10008091E80083FF18C0F701808190E0209167
:100C20001C0130911D012817390771F480911901B9
:100C3000893009F48CC000F5823009F4F6C08330A5
:100C400009F4C0C0813081F18E819F810FB6F89484
:100C50009EBF0FBE8DBF27960FB6F894DEBF0FBEA6
:100C6000CDBFDF91CF911F910F91FF90EF90DF905B
:100C7000CF90BF90AF9008958A3009F4BCC08B30FC
:100C800019F7809118018132F9F68091E800877F89
:100C90008093E800B7DC90911A0181E0911101C0C6
:100CA00080E0F7018187D0CF80911801813A61F609
:100CB0008DB79EB79D838C831A82198280911A0109
:100CC00010911B018B838085482F50E08DB79EB714
:100CD000841B950B0FB6F8949EBF0FBE8DBFEDB76A
:100CE000FEB731966F0160E070E0CF01A4D14FEF05
:100CF000410F8E010F5F1F4F9601BE016D5F7F4F49
:100D0000C7017FDAF70186819781009721F040853E
:100D100050E0B60187D11092E9008091E800877F0A
:100D20008093E8008B8181118093F10069817A8141
:100D3000C60109DB8091E8008B778093E8008C8105
:100D40009D810FB6F8949EBF0FBE8DBF7DCF809161
:100D50001801813209F078CFEDB7FEB7FD83EC833F
:100D600000911E0110911F01A0901A01B0901B016B
:100D70008DB79EB7801B910B0FB6F8949EBF0FBE28
:100D80008DBFEDB7FEB731966F018091E800877F88
:100D90008093E800B801CF0130DB8091E8008E77C6
:100DA0008093E80021E030E0A11002C020E030E0B4
:100DB000021B130B2C0D3D1D4FEF4B0D6A2DC70170
:100DC00031DABDCF80911801813A09F03DCF809191
:100DD000E800877F8093E8008091E80080FFFCCFE7
:100DE000F70181858093F1008091E8008E778093F0
:100DF000E80008DC29CF80911801813209F024CF66
:100E00008091E800877F8093E800FCDB80911A01E5
:100E100090911B0136E0969587953A95E1F78C7F86
:100E20009370F701958784870FCF80911801813ADD
:100E300009F00ACF8091E800877F8093E8008091D5
:100E4000E80080FFFCCFF70184859585969587950E
:100E500096958795C7CFCF93DF93FC01DC011A9657
:100E600086E0ED0119928A95E9F781E0818784EFA8
:100E700091E09587848783E0848361E0CF010196C8
:100E8000DF91CF9181CB8F929F92AF92BF92CF9201
:100E9000DF92EF92FF920F931F93CF93DF9300D0D7
:100EA00000D000D00F92CDB7DEB77C018DB79EB7D2
:100EB0009F838E8380911701843009F076C08091E2
:100EC000E4009091E500F701228533852817390762
:100ED00009F46BC081818F708093E9008091E800F4
:100EE00085FF63C08DB79EB79D838C83408550E09E
:100EF000EDB7FEB7E41BF50B0FB6F894FEBF0FBEBF
:100F0000EDBF8DB79EB701966C011B821A821982C4
:100F100060E070E090D08E010F5F1F4F960140E0BF
:100F2000BE016D5F7F4FC7016CD9082FF701848523
:100F30009585892B29F011E086859785892B09F005
:100F400010E0F7018680978049815A8181149104CD
:100F500009F045C0452BD9F0002311F410FF17C04C
:100F6000F701848595859787868781818F70809327
:100F7000E9008B81811146C069817A8140E050E0AF
:100F8000C60193D98091E8008E778093E800809124
:100F9000E4009091E500F701938782878C819D8121
:100FA0000FB6F8949EBF0FBE8DBFEE81FF810FB6C6
:100FB000F894FEBF0FBEEDBF27960FB6F894DEBFC4
:100FC0000FBECDBFDF91CF911F910F91FF90EF909A
:100FD000DF90CF90BF90AF909F908F900895B40115
:100FE000C60113D05C01F701408550E0B601C40191
:100FF00019D089819A81892B51F20111B1CFA114A5
:10100000B104ABCF8093F100B7CFFB01DC0104C08A
:101010008D910190801921F441505040C8F7881BF0
:10102000990B0895FB01DC0102C001900D92415023
:101030005040D8F70895DC0101C06D9341505040F5
:08104000E0F70895F894FFCFDA
:1010480000810800000110010400000000000000F9
:00000001FF
